:20000000004C0020CD23000001C9011001C9011001C9011001C9011001C9011001C9011062
:1C00200001C9011001C9011001C9011001C9011001C9011001C901103FC9011089
:20003C00BB482DE9F84F0025BA4CB849056094F8E200002800F06581012800F02F81B64E7A
:20005C0002283CD0032840F05C8151F8250CD4F8B8100029A0F5C060C4F8D400B8BF494298
:20007C000028B8BF4042814226DA4FF08057D7F8A4014568B4F8BC0030214FF47F42082361
:20009C0000903046A847D7F8A4014568B4F8C00004214FF4F802122300903046A847D7F867
:2000BC00A401B4F8D070456820214FF440620A2330460097A847012584F8D8501CE151F887
:2000DC00258C02F05FFE2F4600B901273946934F38680028FCD0B146012609F10409D9F8C3
:2000FC002CA03E6009B102F053FECAF30720C4F8BC0002F047FEAA4600B9B2463B68002B7B
:20011C00FCD0D9F800B0BAF1000F3E6001D002F03FFECBF38440C4F8C00002F033FEAA460D
:20013C0000B9B2463B68002BFCD0D9F81C90BAF1000F3E6001D002F02BFEC9F38120C4F87E
:20015C00D000B8F5C061C4F8B81000F09C8094F8D80068B9C4F8D410D4F8C000C4F8C80020
:20017C00D4F8BC70C4F8C470D4F8D030C4F8CC30D4F8D410D4F8BC30002954BF02206FF0D2
:20019C00010004F1C802176801EB41014018411000EB917107EBA1001060D4F8C810C4F8DD
:2001BC00C43000291CDD1E293CDDD4F8CC0030B93429B4BF15391E21C4F8C81025E02A29E3
:2001DC00BABFD4F8C8000B381E20C4F8C800D4F8C4003F28B4BF401C3F20C4F8C4001FE04D
:2001FC00D4F8CC00032812D011F10B0FC6BFD4F8C8000B30301CC4F8C800D4F8C400002846
:20021C00C4BF401E051CC4F8C450032508E011F1150FC6BFD4F8C8001530301CC4F8C8008C
:20023C00C4F8CC504FF08057D7F8A401B4F8C43030214FF47F424568374800930823A84772
:20025C00D7F8A40104214FF400321123456832480096A847B4F8C860D7F8A40104214FF4E4
:20027C00F802122345682C480096A847D7F8A40120214FF440620A23B4F8CC6045682648D3
:20029C000096A84701E084F8D85040F2FF50404502D8801C40452FD2082030E051F8251C74
:2002BC001F4F4BF2F5204843060A3868C0F3814001280CD11B4800680068804702F0FCF8CD
:2002DC0002F06CFD3111C010484306EBE03694F8E50030B91448006820F07F40801946082F
:2002FC0001E084F8E5501148310C0660012741600F4D8760287808B90B2000E0052084F83B
:20031C00E40000F021FBBDE8F88FC0462D400C402C500C401C13002000A00C4000800C4017
:20033C00B43F0050EC010010102009403C600C40D53000002DE9FE4F05467F4800240068FA
:20035C000094C0090ED37D48007858B97D497C4851F8112C104040F0817041F8110C2020DE
:20037C0002F048F8012D40F0E280DFF80892D9F8DC00012840F0D8800220C9F8DC0002F0EF
:20039C004DFB012002F036F85FEA000805D00120C9F8DC0002F052FBCBE002F048FDA346CA
:2003BC0002906948694DC0F800B0A86A016801208847012804D1584601F02AFD01200090F0
:2003DC006348644FC0F800B03868112002F0F8FC00B10124102002F0F3FC08B144F00204AA
:2003FC000F2002F0EDFC08B144F004040B2002F0E7FC20B12868584E016B308888470A20BE
:20041C0002F0DEFC20B12868544E016B308888475348012606602868816944F02000884739
:20043C005048066002F0C6FC00F001010191400814D2286A81684C4888478246BAF1040FD8
:20045C00F7D0BAF1010F04D1286A42684648032190474649086820F003000860584600F05C
:20047C008FF82B683868986B8047019801280CD0BAF1010F04D1286A42683B4831469047A1
:20049C003A49086840F0030008603148066028684169204688470B2002F092FC20B1286858
:2004BC002D4BC16A188888470A2002F089FC20B128682A4BC16A1888884729480660032201
:2004DC00C9F8DC20274BC3F800B02868416B204688470128F9D13868042001F08BFF044679
:2004FC00194806603868144800688009FBD30098012802D1304601F08BFC02F049FC08207D
:20051C0001F078FF07460298C9F8DC6000F034F81748008801F0A0FB02F090FA57EA040023
:20053C0018BF4FF0FF3804E06FF0040801E06FF001084046BDE8FE8F14100940041400205D
:20055C00FFFFFCFC150009400C400940B8010010000222432C200940D22F0000CE2F0000D3
:20057C0028200860800104430040034024220840D03000001C130020DFF800F005B30110F7
:20059C002DE9F84FDFF8F0B10746ABF13500DFF8DC910068800880F0D880704800680068C8
:2005BC00804779490831D1F8008000254FEA28725FEA985102F101020AD2C0F13E0110F127
:2005DC000A0F4FEAE101D8BF08218A42B8BF0A1C634BD3F87C11C1F304611629A8BF203984
:2005FC001B68C3F30443162BA8BF203B9A465118162905DA11F10A0FB8BF6FF0090100E01A
:20061C001521584B584E01F01F0242F4F8521A80326812F0030F18BF0125D20828BF45F072
:20063C0002050FB145F004054A4692F90730C31A052B04DA9379AB4208BF918865D0DFF877
:20065C0030E10F28A0F10F0C25DB0CEB0013A3F1F00C4FEA2C26072E88BF07263446062C10
:20067C0088BF06245EF82470042303EB84037446E358DB1B03F0FF04EF0824BFC3F30727C8
:20069C003C44AF0824BFC3F307473C446F0828BF04EB136401E0002426465EF826E0EF0818
:2006BC000EF0FF0324BFCEF307273B44AF0824BFCEF307473B446F0828BF03EB1E63A4B282
:2006DC00ACEB0626BAEB010104FB06F404F1800403EB1423D8BF0121342408F0FF074C435F
:2006FC007C43B4FBF3F14FF6FF738B4238BF191C802889B2918005DA10F1800FB8BF6FF0A3
:20071C007F0000E07F20D07195711A4800681F2910604FF0000008D340F2FF128A4206D2F5
:20073C004908401C8A42FBD301E01F219180134F0F39090940EAC10047EA0001CBF8FB1F6E
:20075C000026CBF8FF6FBDE8F88F0D490D4F4A4608200F60921D1070BDE8F88FEC010010C9
:20077C003C1100506E62084024220840441A00209C130050082009403500094000E7A480A3
:20079C0030100940FDFDA400AC3F00502DE9F04FADF1240D079000F09FF96148007802F085
:2007BC0073F8604D0024012808D90A380FD0801E04D0401E0ED0401E09D006E002F0D4F92C
:2007DC00022804BF01210C1C06D0696805E005211F2401E0032107246960534A1068C0F310
:2007FC008150012806D152F80C0C0127020E07FA02F0044302F094FA524AFF230818401E7C
:20081C00471C28607F1E02F8013BFBD1079A1268002702F0FF03FE2B20D0DDF81CC0964656
:20083C003B4601260EF0FF02FF2A10D0904205D3914203D806FA02F2144201D002206CE00B
:20085C0017430EF0FF02DFF8FCE00EF802305CF804EF5B1C0EF0FF02FE2AE5D1092000F084
:20087C0025FE07980121A86005F1280001F0CAFF05F19806A8464FF0010A4FF0040B002559
:20089C00A9460AFA05F0044216D1074204BF05F0FF0141F4C04104D02A480799405D51F824
:2008BC002010224800F036FDE8B24FF0FF3102F025F9C6F8009001E0C6F800B0D8F80000D9
:2008DC006D1C361D8542DCD904A802F020FA184C184A2078102104AB059008F10C0001F023
:2008FC00CBFD684602F024FACDF80C906A4660681149029008F1640001F0FCFD0F4951F8A9
:20091C000D0C20F4F85040F4005041F80D0C0C4FC1F8FFAF4846C7F800A009B0BDE8F08FE4
:20093C00501A002008120020B43F0050007FC7670C310000352B0000552400000D3009404B
:20095C00080009404C1200202DE9F843614C5A4D5A4EDFF870815E4F94F8E4100846401EBE
:20097C000B2864D8DFE800F07B2C43062343062343067664042907D001220A2945F8212CAF
:20099C0014BF0220032004E0202045F8210C0120024684F8E200002045F8390C0827C5F840
:2009BC00FF7FC5F8F37F45F8392CBDE8F883052914BF09200620002784F8E400376075E0E9
:2009DC0094F8E170383D0120002FC5F81B0004BF0620002102D00021F160032084F8E400B0
:2009FC00032045F8010C3160306880085ED294F8E4103348012703290ED00068456800212A
:200A1C006022052300914046A84794F8E400062814BF0A200720CFE70068456800216022DA
:200A3C000523022000904046A8470420C4E7FEE72548264F0026012506600E203D6000F048
:200A5C00D7FC022001F01AFE84F8E45084F8E360BDE8F883002038600C25786024E04FF0E9
:200A7C008059D9F8A0010168202088472C3D0F2045F8010C41F61D56C5F80360D9F8A40175
:200A9C00466800214FF4C0720723022540460095B047D9F8A401C66800214FF4C07207232F
:200ABC004046B0470120386084F8E45004F1780002F0B1F9BDE8F88339400C4038600C4062
:200ADC00A401001000A00C402C500C4004800C4034600C401C1300202DE9FF47484C94F816
:200AFC00E700002876D13D4801273D4D006884F8E770EE7C84F8E6606B68C4F81031C0F363
:200B1C00801084F8E800684600F068FA002604F10C0001966B468DF80060324902963246E6
:200B3C0001F0DCFB304904F130006B46324601F0D5FB2E4904F154006B468146324601F0A8
:200B5C00CDFBA96838468847DFF8B08028482A7D08F104030078284D1868C0F3815A22B167
:200B7C00BAF1030F04D184F8E170BAF1030F17D0BAF1020F14D0BAF1010F0ED0022001F00A
:200B9C00CBFD1C480068016804208847012804D028683221B1FBF0F10DE001F0C9FC12E047
:200BBC00022001F0B9FDBAF1030F0CBF4FF47A7142F210712868B1FBF0F1484602F029F926
:200BDC00484602F028F940460068C00802D2304601F0A2FD00200090BDE8FF871410094080
:200BFC00C03000006F1A000029160000E51C0000501A0020E00100104C1A0020B03F0050E0
:200C1C001C1300202DE9F04786000D463348DFF8D0800168824606EB0109280F2CD2680CCC
:200C3C000DD2E80B424600F00C0010188169AF0C07F03C001218D46801270C4305E0E80B8D
:200C5C00424600F00C001458002702F0E8F8012F05D1290D2CBF23494FF000410C43DAF85B
:200C7C00003021499A5905F47F07114047EA01029A5100F03FF800E0002415F0E06712D083
:200C9C0002F0CDF8DAF800209159AB0D21F08E410F4303F01C019751474607F1280251586B
:200CBC000C4300F027F899F80000104F99F801100443386831B9214601F0B0F9012089F8B4
:200CDC00010007E0290F2CBF4FF4E0210849224601F0BAFC0020BDE8F087C046D8300000FF
:200CFC003830000000004080FFFF00BFA4140020007FC767DFF800F061C00110F8B502F0D6
:200D1C0041F801F0BBF802F055F8054605F00C000C2854D0E80826D201F0A0FD2A4E37686A
:200D3C0004460120014601F0D9FE31686143884219D22649F020B0FBF7F0241A887C18B10F
:200D5C00C868A04238BF041C214D2146284600F049F8284600F04AF80120FFF7EBFA2846D0
:200D7C0000F048F82DE0280929D21A4CA4F1200620688168184888470746042FF8D0174886
:200D9C00690905D227B101460A6822F0010203E001460A6842F001020A6098310A6842F0A0
:200DBC0003020A6030688169202088470C4C37682068B86B804701202060206801E002F0B2
:200DDC0026F801F0E5FFF8BD24310000C030000028130020D8010010004003408C2108404E
:200DFC002C200940DFF800F0E5C00110DFF800F01FBE0110DFF800F0B9BA01102DE9F04778
:200E1C008046994616460C46ADF1800D18A801F017FF00213C220823684600F061F82E485A
:200E3C0000254C212A4618AB0068C8F80050824600F05AF8071C49D004B9284C6068049680
:200E5C0023690597E168CDF82890A2680790002B4FF0FF33069302EB01000890284618BFE7
:200E7C000120B862FE627D623D6328467863206838602946FD6307F1400000F039F80FA8F4
:200E9C0029462422082300F037F8012029460FAA8DF8540007F10800064600F031F80D485B
:200EBC00694618AA00F030F8786038B1C8F800707868216800F04CFC284608E0304600F03F
:200EDC0027F8504639464C2200F026F80C2020B0BDE8F087011F00002C3100004C14002031
:200EFC00DFF800F021C00110DFF800F049C30110DFF800F0A1B60110DFF800F009C0011069
:200F1C00DFF800F05DB40110DFF800F0CDAC0110DFF800F00DC10110DFF800F005C7011031
:200F3C00F8B5012001F084FC071C4DD001F077FF294C216919B92761FFF7DCFE04E0FFF7AC
:200F5C00D9FE384601F042FF20694FF0FF3101F0C3FE2078002834D104F1140004F1080178
:200F7C0000F094FC1949606001F01EFFFF2204F134012020401E01F8012BFBD1144DA8685A
:200F9C00002713E02968BE008859C00F03D28959F8B2FFF737FEE868B84205D9686831580F
:200FBC0011B1F8B201F01CFBA8687F1CB842E9D8084A04F120000421002301F079FC012005
:200FDC002070206901F031FFF8BDC0461D290000D8300000AD220000A0140020002181600D
:040FFC007047704783
:20100000B41200001810000015AB0110FDB301106DC00110FDAE011099B5011059BA0110D3
:0810200039BA01102F00000095
:20102800B01200003C100000B1C00110A9BF011067C0011069B80110B9B9011099B901104F
:041048003300000071
:20104C00B012000060100000BDC00110CDB30110D9BD01106DB301108DB80110D9B9011062
:04106C00340000004C
:2010700000000000E416002004000000000000000000000020000000E8C901103000000030
:2010900028100000EC1600200400000000000000000000000C000000D8CA0110180000000B
:2010B0004C100000F416002004000000000000000000000024000000F0CA0110180000008F
:2010D00000000000FC1600200400000000000000000000001000000018CA01102C0000009B
:2010F0000010000004170020040000000000000000000000200000006CCA01102400000006
:20111000FFFFFFFF0C1700200400000000000000000000002800000090CA011024000000C5
:20113000FFFFFFFF141700200400000000000000000000001400000008CB01101800000044
:20115000FFFFFFFF1C17002004000000000000000000000058000000B4C901103400000012
:20117000FFFFFFFF241700200400000000000000000000001000000020CB011018000000E0
:20119000FFFFFFFF2C1700200400000000000000000000001C000000B4CA0110240000000D
:2011B000FFFFFFFF341700200400000000000000000000003800000044CA01102800000035
:2011D000FFFFFFFF3C1700200400000000000000000000005400000078C901103C000000AA
:0811F00001000000283100009D
:0411F80001000000F2
:0411FC0000000E00E1
:0412000000000F00DB
:0412040032000000B4
:0412080001000000E1
:04120C009016002018
:0412100000020000D8
:0412140000000000D6
:0412180001C90110F7
:04121C0000000000CE
:0412200000000000CA
:0412240008000000BE
:0412280000002200A0
:04122C008815002001
:0412300001000000B9
:04123400A8160020D8
:0412380008000000AA
:04123C005016002028
:0412400000000000AA
:0412440000000000A6
:04124800080000009A
:04124C00000000009E
:04125000000000009A
:041254000000000096
:041258000000000092
:04125C00010000008D
:04126000F015002065
:041264000600000080
:041268000100000081
:04126C00F414002056
:04127000000000007A
:041274000000000076
:041278000002000070
:04127C00000000006E
:02128000290043
:02128200010069
:02128400240044
:02128600330033
:02128800340030
:02128A002F0033
:02128C0001005F
:01128E00015E
:08129000030000000031000022
:0812980000000000000000004E
:0412A0000000010049
:0412A4000000030043
:0412A800D92A00003F
:0412AC008B2C000087
:0412B000B812000070
:0412B400B81200006C
:0412B8000000000032
:0412BC00A816002050
:0412C000192D0000E4
:0412C4002000000006
:0412C800EC30000006
:0412CC009C30000052
:0412D00029C101101F
:0412D400172B0000D4
:0412D800B72C00002F
:0412DC00A1C7011095
:0412E000A3C701108F
:0412E4000200000004
:0412E800FE300000D4
:0412EC0008300000C6
:0412F00020300000AA
:0412F400F02F0000D7
:0212F8000200F2
:0212FA000900E9
:0212FC000100EF
:0212FE000000EE
:0113000001EB
:04130400CD2C0000EC
:04130800C5270000F5
:04130C00D1290000E3
:04131000CD260000E6
:0413140001270000AD
:04131800412300006D
:04131C00011C0000B0
:04132000872D000015
:04132400B1210000F3
:0413280015C70110D4
:04132C0025C70110C0
:201330002DE9F0470D4606465FFA85FA280824BF2E4845402E494FEA8A03C85885EA0002FD
:201350003240C2F300672B4A06EA0504B043224006F4E0240243B4F5E02F01D1500E14D31A
:2013700006F4E020074310D002F4E027B7F5A02707D0B7F5803704BF22F4003242F4A0228C
:2013900003E022F4803242F4C022DFF86C80CA5008F1D00739680122002002FA0AF40C42A1
:2013B00018BF101C5FEA000906D1F00D04D34146C5F3805001F80A00300E0BD301F035FDCC
:2013D000290E34BF0021211C3A68A24311433960FFF796FCB9F1000F06D0F00D04D3404690
:2013F000C5F3805100F80A10BDE8F087006000A000100840007F077F002002402DE9B0435E
:20141000044601F012FD81462748021992F8F010491ECFB2002F82F8F0703FD1254901EB3C
:2014300084014A880C78904634F07F0718D1E1090FD24FF0805000F5DC75D0F8B8018169CD
:20145000104688472868416B404688470228F9D11EE000EB8800D0F804110020884717E09E
:201470004FF08055D5F8B801016A10468847D5F8B801816A40468847D5F8B801016B4046F4
:2014900088470A4901200860094908688008FCD304F03F003F2801D0FFF7B0FF4846FFF7E4
:2014B0002FFC0020BDE8B0831C1300202820086028200840A42F0000F8B5064601F0B5FCFC
:2014D000264D0746A91991F8F000421C002881F8F0203ED1224C04EB8604267806F03F0029
:2014F0003F2801D0FFF7E8FF648836F07F0018D1F0090FD24FF0805000F5DC75D0F8B8019D
:201510004169204688472868416B204688470128F9D11EE005EB8405D5F80411012088472F
:2015300017E04FF08055D5F8B801C16920468847D5F8B801416A20468847D5F8B801C16A94
:2015500020468847074901200860074908688008FCD33846FFF7D4FB0020F8BD1C130020EF
:20157000A42F000028200860282008401D4838B50468B4F1FF3F08BF002401F0E7FB24487D
:20159000244B194A002501211038056003F15C000160164B11601868806C804714480068FB
:2015B00020B114480068204600F05AFA124813490560134C0A686FF35B4244EA0200086059
:2015D00010490868C0F30130012806D10A680E48104040F400320A6008600C490868002811
:2015F000FCD138BD1C13005008220443F001001080012843000120438C2108404820034038
:201610000000390104000940FFFFFCFC0C0068429404604200600C402DE9F04101F005FC68
:20163000244D214E804605F1E000007848B93446A168022088470746102000F0E1FE77B3BB
:201650001BE001F0BDFBC0091BD21B483C380068C4681648342101220023A04788B100F0AC
:2016700071FB34460020A16885F8E000022088470746102000F0C4FE8FB1A1680320884793
:201690000DE00B4800683221B1FBF0F101B901213035284601F0C3FB284601F0C2FB4046B2
:2016B000FFF72EFBBDE8F081C030000000A00C404C1A00201C130020E0010010F0B5204836
:2016D0000127F84201D000F0C3FD204D204F214EBD4206D203CD0478A4003459401CA04735
:2016F000F6E71D48002800D08047164D164FBD4202D210CDA047FAE7F0BD03251BE0416820
:2017100008300A1C2A400BD11A1C2A40AB4305D0046804300C600431043BF9D1131C05D064
:20173000047801300C700131013BF9D1021C2A4001D0A84304300368002BE0D17047C046BC
:20175000FFFFFFFF00000000000000002C33000094330000E432000015C401102DE9F0470A
:201770000F46064601F012FCEFF311898246202080F31188D6F80880474533D01D481E4B76
:201790000068002F05D49C690125BD4004EBC70401E01C180025307D01281AD1304601F085
:2017B000F1FB306C01F0EAFB18B1F1685868884358601869864204D02046314601F0DAFB96
:2017D00004E020685C61314601F03FFB586828435860B760F5603464002F44BF002058613C
:2017F0000120188189F31188504601F0BFFB4046BDE8F08788CB011000010020002A4AD05E
:201810005FEA000C8B071CD1830722D1102A08D370B4103A78C978C0103AFBD270BC1032E6
:2018300038D0042A2CD3082A05D30C2A24BF08C908C008C908C008C908C092072AD0920F41
:2018500022E00B780370491C401C521E22D08B07F7D1C30714D18307D8D0121F12D308C93B
:2018700003801B0C4380001D121FF8D20AE008C903701B0A43701B0A83701B0AC370001D40
:20189000121FF4D2121D05D00B780370491C401C521EF9D1604670472DE9F843234D884660
:2018B00006464FF0FF3105F12800814601F01AFA00200CE0FF2909D02A688A4204D305EB41
:2018D0008101D1F898700FB1002627E0401CB8F1000F03D018F82010FE29EBD100243460F6
:2018F00074600127B46011E0FF280ED005EB80000B787268C0F8986007FA03F0104370603E
:201910000A680949304600F0A5FE641CB8F1000F04D008EB84010878FE28E5D1484601F08B
:201930008AFA3046BDE8F883007FC767081200202DE9F0474FF02009EFF3118889F3118851
:20195000204CA068012101F00DFB4FF0010A0027226861696569A4F81CA0891A2268E78366
:20197000461B801A884228D388F3118838462D18361A5046294601F0F1FAB042F7D9EFF3EB
:20199000118889F31188E18B012903D13846294601F0E4FAB0F1FF3F06D0A169801B814246
:2019B00038BF081C291801E0A069411901F0D2FAA4F820A0A783256000E0A78388F3118891
:2019D000BDE8F087780100208B4208BF824204D90B1C021C002100207047002B08BF002AB4
:2019F0000BD10B1C021C00210020002B08BF002A1CBFC943C04300F0FAB8F0B51C4615466B
:201A10000B46024600200021B4FA84F6202E04BFB5FA85F62036B3FA83F7202F04BFB2FA3E
:201A300082F72037F61BB6F1200727BF05FA07F400257F42B4403EBF25FA07F73C43B5409F
:201A5000A34208BFAA4201D3521BA341404149416D0845EAC4756408761EF1D5F0BD7047A7
:201A70001C4A2DE9F041804601251B4815600768002FFCD0194CC0201A492060081F0368C1
:201A90009B0806D250F8040C154B000C40F0F000187000204FF080571063D7F8F0010E6870
:201AB000016830468847D7F8F0014268314640469047D7F8F001816830468847D7F8A001CC
:201AD000C1680220884740202060074E3560BDE8F081C046101009409402224300600C40E6
:201AF00056620840B43F0050940460422DE9F047044601F04BFA40340346204601F03EFA40
:201B100078BB184601F032FA18484FF0FF31824601F01CFA204601F015FADFF854900546FD
:201B300018E02B461E699F68184601F007FA0546184601F027FA304601F024FAD9F80080BD
:201B5000396811B1D86800B18847404631461C22FFF7E8F9AC42E4D1504601F0EBF9BDE88D
:201B7000F087184601F002FABDE8F087601400202C310000002213460A46194671B510F036
:201B9000030F0BD0002A82BF00F8011BB2F1010210F0030FF6D1002A08BF71BD11F0FF012A
:201BB00041EA0121042A18D341EA0141082A0FD30E46102A08D30C460D46B2F10F0312F069
:201BD0000F0272C0103BFCD812F0080F18BF42C012F0040F18BF40F8041B12F0020F18BF74
:201BF00020F8021B12F0010F18BF017071BD70472DE9F8438146EFF31188202080F3118882
:201C1000174D154C134F012605F11C000660A4F114000660F86A016A14208847D9F810002E
:201C3000810C14BF000C04202060386802682321002090470948066054F8180C20F4C02024
:201C500040F4803044F8180C2E6088F31188BDE8F883C04684010010182009408002244369
:201C700000002443B0B51A4C0546241D20680004070C27D01448006800688047134991F927
:201C90000720824205DD10F1800FB8BF6FF07F00C871BD422CBF01277F1B8D88BD4210D8A1
:201CB0000A68D4F8D40F801A801C1F2888BF1F207F1B4008C7404FF6FF70EF19B84238BF5A
:201CD000071C8F80B0BDC046EC010010441A002030100940174810B5006801680420884763
:201CF000022821D003281FD001281AD012480068C0F38150032805D002280CBF41F2883264
:201D1000322201E04FF47A720C490D4C09684C342046B2FBF1F101F082F8204601F081F880
:201D300010BD00F00BFC10BD00F008FC022000F0ABFC10BDE0010010B43F00504C1A0020CE
:201D50002413002038B54FF08055D5F8E001016801208847012823D0D5F8A401C468124800
:201D70003421012200231038A047002808BF002017D0D5F8800000F0B5FDD5F88C01C06A20
:201D900080470A4A074C93681168D060C01AA1EB910104FB00F3180C884228BF011C1160D4
:201DB000012038BD40420F0010A00C40281A002098B5164C94F8E100002710B9144800782E
:201DD00060B101F032F894F8E310002906BF012184F8E3100127FEF793FF0FB1002098BDE5
:201DF000022000F09FFC0E20FFF766FB094A106848B909494020C86008600127D761002013
:201E100084F8E20098BD012098BDC0461C130020D530000004800C402C500C40012898B521
:201E300027D116480068016801208847012820D000F07EFD134C012104F1D800017000F048
:201E5000BFFF800917D20E4800683222B2FBF0F707B90F46083C04F1300000F0E4FF04F156
:201E70003000394600F0DBFF04F1300000F0D9FF01E000F081FA002098BDC046E001001034
:201E90004C1A002024130020164880B507683FB315498B6803EA5300C00E21D2134A10683A
:201EB00080081DD2486880081AD21068096810F0050F4FEA114101F0F00101F5E0710AD1EB
:201ED000B9420DD2190F38BF40F00100D90E38BF40F0040003E0B94202D920F00500106078
:201EF00080BDC04628500940AC3F00500000094038B50C46606800F0AAFFE16A8847A0638D
:201F100002E0012100F0AEFEE06B0028F9D12046FFF7ECFD01F03AF80546A06A60B904F109
:201F3000080001F007F860684FF0FF31FFF716FC284601F01BF838BD284601F017F804F190
:201F50000800FEF7EBFF0348006821464C22FEF7E9FF38BD2C310000F8B5844640F6FF74B3
:201F70001CF8013B002210E0481B401E10F8015B7F1E01F8015BF9D103E01CF8010B01F812
:201F9000010B521C5B08082AEADA5808F5D21CF8010B1CF8015B05F00F07FF1CC5F30315B1
:201FB000122F45EA001508D11CF8016B300A24BF1CF8010B60F3DF16BF19AC42D4D1F8BD8E
:201FD00000B5ADF1240D00F0C9FD684600F0C2FC01200690012008900899684600F0C4FEEA
:201FF0000790079800B1FEE7684606A900F0F2FD68464FF4806100F00DFF07990843079079
:20201000079800B1FEE7074A05A869460023FEF7FBFE0790079800B1FEE700F087FF00205B
:2020300009B000BD172A00002DE9F041071C0E4604D0154C2068F5B2A84202D20220BDE832
:20205000F08104F128004FF0FF31804600F04AFE04EB85049834206860B979680120A840A6
:2020700027603246084307497860384600F0F2FA002400E00124404600F0DDFE2046BDE8FF
:20209000F081C046007FC767081200201348144A14490078801E0A2807D8DFE800F01914B1
:2020B0000F06140F06140F0607C0FEE710688008FCD250688008FCD2FEF74CBC086880082C
:2020D000FCD3FEF747BC08688008FCD2FEF742BC10688008FCD3FEF73DBCC0460014002079
:2020F00034600C4038600C403EB5401E4FF000040AD0401E04D0401E1CD1FEF72BFC19E00C
:20211000FFF756FE044615E06846FEF76DFF01940B4D8DF800400849029401226B4605F1B4
:20213000780000F0E1F8054A2C21234605F19C0000F0A8F920463EBD9D2000003D000000CB
:202150001C1300201548F8B50468002C21DD114F114E00250020294600F0E4FE83681BB97C
:202170003B680122836000E0002241685B185B1E491E8B4383603AB13268D21A0261416979
:20219000B2FBF1F25143016100F0C8FE6D1C641EE0D1F8BD1C3100002031000030120000A2
:2021B000154909681E280ADC1E2819D00C380FD00A380FD0001F0FD0C01E0FD01AE0243890
:2021D00010D0401F10D0401E10D0401E10D011E0086870474868704788687047C868704747
:2021F000086970474869704788697047C8697047086A704700207047F0010020F8B5134C92
:20221000860020680D46371800F00FFE25B92168725822F4002203E02168725842F400220A
:20223000725025B93A7801219140002203E03A78012191400A46044C23680A408B431A43FF
:202250002260FEF75DFDF8BD80200240D8300000F8B506460F4D104F7388002417E0A20092
:2022700002EBC402921951689068D26852B9AF420BD00A7855F822200346491C08461946C2
:20229000904701E0FFF7BAFA7388641CA4B2A342E5DCF8BDE4320000F03200000428F8B58F
:2022B0001BD10F4C0F4FA0680025012613E0206850F82510C80F0CD2E8B2FEF7A9FC07F13C
:2022D0000801096806FA05F0014202D0E8B200F071F9A0686D1CA842E9D80020F8BDC0465F
:2022F000D8300000A4140020F0B515460E4604461F1CADF1240D08BF002308D068460021B5
:202310002422082300F006FEB8686B460690204631462A4600F0FAFD0348044F0168204640
:2023300009B03960F0BDC046243100004C1A002098B50C4600F02CFD002700B101270D48A0
:2023500008300068C06A8047211AB1F1004F08D8011B891DC90F05D1801DA04288BF041C7A
:2023700000E0841D024804600FB900F017FD98BD182009408401001038B50E4DD5F8600171
:202390004268002103209047D5F8600101680120884710B1286800F0A5FAD5F80C01C06AFD
:2023B0008047054CD5F86C31083C606018688047206138BD80000010301A00200C488546B1
:2023D0000C4885446F4607208743BD460A486F4607600A48002803D07946491D8E4600472C
:2023F000FFF76CF900F0DEFB00F08CFDFEE7C046004C0020000400004C170020192E00000B
:2024100038B50F4C0546204600F0BCFCA8B9204600F00DFD0446A068054209D0E368226902
:20243000284600219847002818BF4FF0FF3005D1204600F0FEFC041CEDD1002038BDC04692
:202450001C1300202DE9F04100F0F9FC0C4D002401278046643D05F1980607FA04F018EA5A
:20247000000F06D056F8240018B102680AB1214690472868641CE4B28442EED9BDE8F08180
:202490006C120020F0B514460D4606461F1CADF1340D08BF00230DD06846002130220823C3
:2024B00000F02CFD7B680893386805903A7AADF818206B4630462946224600F05DF80DB0AF
:2024D000F0BD70470D4938B5D1F8EC3209681B3800FB00F409060A1643F3072100FB01F52D
:2024F00019066043091661434243891201EBE50101EBA24000EB234038BDC046A41000503A
:20251000B0B50C460546171CADF1280D08BF00220ED0684600212822082300F0EBFCFA685F
:202530000792386804907B680593B96806916A462846214600F004FB0AB0B0BD7CB54FF080
:202550008056D6F8A4010B4D446800214FF040521C23032000902846A047D6F8A4014468C6
:2025700000214FF400720923012000902846A0477CBDC04600A00C40F8B507460A480B4C75
:202590000668E0698D00285886420AD108480090384600F0ABFCE0692858864218BF381C13
:2025B00000D10020F8BDC04618120000440100207016002070B505460A48046800F035FCDB
:2025D00004EB85040646207800F06EFB0649091FCA680120A8401043C8603046FEF790FB13
:2025F00070BDC046D8300000A414002070B50A4C85002268094EAA5C9319343321B9921939
:20261000FF2082F8340000E0187060684259914218BF415170BDC046D8300000A0140020C7
:2026300070B50A4C850020682E1800F0FEFB327801219140064A303211602268A95881F413
:202650000021A950FEF75CFB70BDC046D83000008020024038B50B4B1C6802F0FF05AC423C
:2026700007D302F0FF0403EB8403D3F89830984201D0022038BD08461146FEF751FE0020A8
:2026900038BDC0460812002010B5044600F0CDFB094B083BE21892F8E910491EC9B282F8BE
:2026B000E91021B99A680121A1408A439A60FEF727FB002010BDC04624130020094910B5F3
:2026D00000200A4C08600120C86114342060216844F8280C04480068016A14208847206857
:2026F00010BDC04600002443B00100101820094070B5044604F128020CCA0846002100F08B
:2027100075FA04F1300292E860002D1846EB0106290C30040143FFF70BFE383484E86000D8
:2027300070BDFEE738B5044600F07FFB084A02F108031D680121A14012192943196092F864
:20275000E910491C82F8E910FEF7DAFA002038BD1C13002010B500F0C5FB00F017FC0320D0
:2027700000F0BCFB06481030006830B1034C204600F038FB204600F03BFB10BDFF0F00008C
:20279000A401002008B500F0A5FB012801D000F09DFB074800F096FB00F0EEF800F08EFB76
:2027B00000F088FB00F082FB00F07CFB08BDC04665270000B0B50F46044600F07FFA04F109
:2027D00028020CCAFFF700F905460B4604F1280003C82A4600F00AFA17B1303484E8030077
:2027F0002846B0BD094801684BF69A120901B2EB114F07D100680B21B1EB107F14BF0020B6
:20281000032070474FF0FF307047C0461813005030B50D460446242208230021ADF1240D45
:202830006846FEF76FFB012029466A468DF818002046FEF76BFB204609B030BD10B50446C2
:20285000002124220823ADF1280D6846FEF75AFB01206946034A8DF81800204600F01EFBE2
:202870000AB010BD7016002038B52020EFF3118580F31188064CA068002100F073FB6169C7
:20289000081AA169814238BF002085F3118838BD7801002008B5FFF7A5FF074984390968AE
:2028B00002464FF0FF30032A04D1C1F30331092908BF082008BDC0461813005010B50C46EA
:2028D00001461046224641B138B1C8608A6004480B6100F087F8002010BD6FF0020010BDB4
:2028F0001C13002070B5054600F052FA002400B90124054E30680028FCD0A847012030604C
:202910000CB100F04BFA70BD00800C40064808B5343040180078FF2805D00449091D09689D
:2029300051F82010884708BDA0140020D830000010B54FF08054D4F8E0014268012103202A
:202950009047D4F88C01C06A80470149086010BD301A0020064938B538C9024638C20AC90B
:2029700082E80A00034909688160002038BDC0464C14002078120000074808B5103000685C
:2029900028B1034800F02EFA024800F031FA08BD992A0000152C0000A4010020074810B5E4
:2029B0001030006830B1044C204600F01BFA204600F01EFA10BDC046D3240000A4010020C6
:2029D000074908B5283090E80C000020FEF7FCFF002908BFB0F1FF3F88BF4FF0FF3008BDA5
:2029F000907E000038B50C46054600F01EFA0021216069686160696801B929460C606C60C1
:202A1000FEF77EF938BD0EB5009001200190FEF78DFA03200121FFF7F1FB019800F024F8F8
:202A30000320FFF7FDFDF8E710B500F0AFFA054C20600348006808B18047606010BDC0469F
:202A5000143100003C1A002010B50548054C016811B1201D00688847206800F087FA10BDE3
:202A7000183100003C1A002005494843054908B50968B0FBF1F000F00DFA002008BDC046C4
:202A900040420F002431000010B5064C206900F0FDF90146A06800B9E160A068401CA0600D
:202AB00010BDC046A4010020054808B54168054801220838026048698969884708BDC0466C
:202AD000E40100200C20094040B10549097829B1044981421CBF0099C1607047FEE7C0468B
:202AF000001300007016002002294FF0000204D0012808BF4FF47A7203E0012808BF40F2A9
:202B1000EE2210467047FEE7002948BF0021044A02EB8000026861F3050202607047C046B3
:202B3000001008400348016803480160034800F088B9C046E0200240E02002606C12002009
:202B5000054B10B5044600F09DF9A068002814BF201C002010BDC0467016002008B5FDF7F7
:202B7000C1FF0348FDF718FE00B1FEE708BDC04678300000044884380068C0F30240062894
:202B9000A8BF4FF0FF30704718130050044908B591F8E60018B1D1F8100100B1804708BDC5
:202BB0001C1300200449B1F1FF3F07BF0020011C0868091DFFF704BAFFFFFFFF012814BF44
:202BD000002040F2FF700249086000207047C046000004600968062903DA11B1B1F1FF3F11
:202BF00001DA1620704701600020704730B502FB01F403FB00444FF00005E2FB00542146D0
:202C1000284630BD04498868401E886003D10869C96800F033B97047A40100202022EFF3D4
:202C3000118382F31188426A1143416283F3118800F020B9034804490068814201D0FFF7DD
:202C500070BD7047009B011042726E7930B10449814203D000212022FEF790BF7047C04611
:202C700070160020002908B501460A690B68DA6302D088684968884708BD08B5C068B0F5BD
:202C9000803F04D1FFF78AFE032000F027F908BD10B50446FFF782FE032000F01FF9204604
:202CB00000F030F910BD704782000348815841F4802181507047C04600100840034808B5FD
:202CD00008300068006B804708BDC0468401001008B500F0CBF80248006800F0CBF808BD18
:202CF0008401002008B500F031F9002814BF00206FF0010008BDD0F8030020B10022401EEC
:202D100001F8012BFBD1704700B50921ADF1240D684600F0A7F809B000BD002101604FF0D9
:202D3000FF31416001210172704700000248006800F07F007047C04644130050002101605F
:202D50004160C1604FF0FF318160704708B5FFF749FD032800D0FEE708BDD0F80320C31D31
:202D700008461946FEF74ABD31F0010212BF162001610020704708B5FFF7A0FF000C0904CB
:202D9000084308BD01460968002001B901207047EFF3108072B6704700207047EFF310800F
:202DB00062B670470020704700FB00F1C0EBA15000B2704700281ABF016000200220704711
:202DD000014800687047C046241300200149F031085C70471C13002008B50090684600F05E
:202DF0003DF808BD0149091F08607047D8160020014908607047C046D8160020014880687C
:202E10007047C046C801002008B5FEF7AFFBFFF711FF08BD81600020704730BF7047FDF783
:202E3000E7BFFDF7E9BFFDF7EBBF00F013B8006870470068704700F07DB800F053B8FFF793
:202E5000DDBFFFF7EBBE0020704700F093B8406B70470000DFF800F085BF0110DFF800F0D0
:202E700009C10110DFF800F029C10110DFF800F043B80110DFF800F011B00110DFF800F072
:202E900095C00110DFF800F079AD0110DFF800F091C00110DFF800F0A5A50110DFF800F0AC
:202EB000D1B20110DFF800F025C10110DFF800F085C00110DFF800F04BC00110DFF800F0E9
:202ED000E9B40110DFF800F081C50110DFF800F083A60110DFF800F069C70110DFF800F046
:202EF000A1BE0110DFF800F011BF0110DFF800F0BDAA0110DFF800F015C00110DFF800F0F7
:202F100079BF0110DFF800F0D5C60110DFF800F069B20110DFF800F0C1BF0110DFF800F0D3
:202F300041BF0110DFF800F0C5B50110DFF800F0B1BE0110DFF800F0E1A30110DFF800F0B4
:202F500005C10110DFF800F001C10110DFF800F0059B0110DFF800F0A9BC0110DFF800F074
:202F7000F1A20110DFF800F0E1BE0110DFF800F0F5B70110DFF800F0FDBF0110DFF800F047
:142F90004FBF0110DFF800F05DBF0110DFF800F031BF011052
:202FA4008F0000008F0001008F0002008F000300900000018F000101900000029000000384
:202FC4008F0001048F0000058F0008048F0000048A000006510000007F0001003F000400F3
:202FE4003F0002003F0001007F0002007B756E6B6E6F776E2D696E7374616E63652D6E61C2
:203004006D657D007B656D7074792D696E7374616E63652D6E616D657D00C0467B7374611D
:203024007469632D696E7374616E63652D6E616D657D00C0000000800020008000400080DF
:20304400000000800004008000080080000080800000808400208084004080840000000074
:20306400000005800000068000000780000000000000000006088080070880801400C08049
:20308400024000800300C08009400080084000800A400080FE0000008FC7011079BA011023
:2030A400CDAF01107FC0011005AA0110B5AE011045B8011019B901105DBE011000000000DE
:2030C400190D0000F9200000000000000000000101010000C0160020DC160020050000009D
:2030E40002000000FFFFFFFF01000000000000000000000000000100000000005521000056
:2031040071A101106DB50110FF0000000000000011BF0110EDA6011008020020081200206D
:0C3124000A0000009D2B000000000000CD
:2031300000C500000FDD030100750085200F05CD2BFF00002D1E0000572ED0039D04FF0062
:2031500004AF0D262F2BFE2A0F39F414D30020003110790430050200F700601701B353C08A
:2031700001106C137F06013F06C5A73493E12C16978F901600200175027D02F54CFC0698D0
:2031900019B301009C150020A4003101BF02B801B00031C00034C8AA0034D00034D80034A6
:2031B000E00034E85A0034F0003441193F17053FC09010C2404802F14131200BB00031281A
:2031D000AA0034300034380034400034486600349C01003320FDBFBD14B3FBFFFF469F14B9
:2031F000B92A0000032602F1001449A31890084A4C00F15F0D0003020E0030071CE23D2078
:2032100002D02800FF0F06700030524D35E417F00031EC0034F40034A5FC0034041EF000D1
:20323000310C003414AA00341C00342400342C0034343200343C0034263F060000FFF000AF
:203250007D0000005C1700205000305954007000F1004C00700400927F2001010000601954
:203270000174000044FFF000F30100000700B920160020EC01A802525817013334010005C6
:203290002000313C0034FFF0009D0000016CDC02007200C0A4EF1500200300C49527001FEA
:2032B00000A12C0000FFF0007D00000440150020F00030F101010000310029501600200059
:2032D0000031FFF0007B0100000F00C0150020016100FFF0691F00006B2D0000072D000099
:2032F000003D00000040150020FFF0001F44170020000000FFF0000002000000F10200009F
:20331000000F08000000FFF00001000000FFF00001000004FFF000030000FFF03031000060
:20333000081200204F32000044010020773200000001002098320000A4010020B73200001B
:2033500078010020D4320000C8010020F0320000E4010020FB320000F8010020083300002D
:2033700060170020103300000002002018330000EC0100201F330000F0010020263300002D
:043390000402002013
:020000040001F9
:20FFA80000008001100082FFFDFF58003AFFFFF3FFFFFFFFFFFFFFFFFFFFFFFFFFFFFFFFB8
:20FFC800FFFFFFFFFFFFFFFFFFFFFFFFFFFFFFFFFFFFFF00FFFFFFFF00FFFFFFC500C5FFAA
:18FFE800000000FF00000000FFFFFFFFFFFFFFFFFFFFFFFFFFFFFFFF12
:00000001FF
